:100000000C9432000C944F000C944F000C944F0051
:100010000C944F000C944F000C944F000C944F0024
:100020000C944F000C944F000C944F000C944F0014
:100030000C944F000C944F000C944F000C944F0004
:100040000C944F000C944F000C944F000C944F00F4
:100050000C944F00B401AB01BD01C601D801E10110
:10006000EA01CF0111241FBECFE5D8E0DEBFCDBF2E
:1000700010E0A0E6B0E0E0EFF9E002C005900D92DC
:10008000A63DB107D9F720E0A6EDB0E001C01D9272
:10009000A93DB207E1F70E94EB040C94F6040C941E
:1000A000000061E087E00E94E203811108C087E060
:1000B0008093D60062E088E00E94A703089564E080
:1000C00087E00E94E203813041F486E08093D6000D
:1000D00062E088E00E94A703089565E087E00E943F
:1000E000E203813041F485E08093D60062E088E04D
:1000F0000E94A703089560E087E00E94E203813038
:1001000041F484E08093D60062E088E00E94A70377
:10011000089560E085E00E94E203811107C010921B
:10012000D60062E088E00E947003089561E085E0F7
:100130000E94E203811108C081E08093D60062E052
:1001400088E00E94A703089562E085E00E94E20330
:10015000811108C082E08093D60062E088E00E94AE
:10016000A703089583E08093D60062E088E00E94B0
:10017000A703089563E087E00E94E203813051F411
:1001800062E087E00E94E203813021F483E0809303
:100190006200089563E087E00E94E203813019F471
:1001A00010926200089562E087E00E94E2038130CD
:1001B00019F480936200089582E0809362000895AC
:1001C00065E088E00E94E203811103C010926100A3
:1001D000089566E088E00E94E203811104C081E096
:1001E00080936100089582E080936100089563E048
:1001F00085E00E94E203811103C01092600008951F
:1002000064E085E00E94E203811104C081E08093F4
:100210006000089582E08093600008950E94BF040A
:1002200066E080E00E94D60483E690E00E94C3046A
:100230002FEF8DE292E2215080409040E1F700C024
:1002400000000E94BF0460E080E00E94D60488E6BF
:1002500090E00E94C30460E081E00E94D60480E741
:1002600090E00E94C304089566E088E00E94700355
:1002700065E088E00E94700360E085E00E94700302
:1002800062E085E00E94700361E085E00E947003F7
:1002900063E085E00E94700364E085E00E947003E3
:1002A00060E087E00E94700361E087E00E947003D5
:1002B00062E087E00E94700363E087E00E947003C1
:1002C00064E087E00E94700365E087E00E947003AD
:1002D00008950E9468030E94A3040E9434010895B7
:1002E00080916200813031F070F08230A9F083306B
:1002F000E1F0089569E081E00E94D6048AE790E089
:100300000E94C304089569E081E00E94D60481E858
:1003100090E00E94C304089569E081E00E94D60441
:1003200088E890E00E94C304089569E081E00E949B
:10033000D6048FE890E00E94C3040895E091D600AF
:100340008E2F90E08830910508F04CC0FC01E65DEE
:10035000FF4F0C94F00469E080E00E94D60486E927
:1003600090E00E94C304089569E080E00E94D604F2
:100370008EE990E00E94C304089569E080E00E9445
:10038000D60486EA90E00E94C304089569E080E004
:100390000E94D6048EEA90E00E94C304089569E0AA
:1003A00080E00E94D60486EB90E00E94C30408958A
:1003B00069E080E00E94D6048EEB90E00E94C304C6
:1003C000089569E080E00E94D60486EC90E00E94E7
:1003D000C304089569E080E00E94D6048EEC90E0AA
:1003E0000E94C304089580916200813031F070F062
:1003F0008230A9F08330E1F0089560E088E00E9447
:10040000700361E088E00E94A703089561E088E03E
:100410000E94700360E088E00E94A703089561E0F5
:1004200088E00E94A70360E088E00E94A703089587
:1004300061E088E00E94A70360E088E00E94A703D3
:10044000089563E088E00E947003089564E088E006
:100450000E947003089564E088E00E94A70363E0AF
:1004600088E00E94A70308950E9469010E94340158
:100470000E940E010E9451000E949E010E94BA003B
:100480000E9470010E94F301089558C00E9451001B
:100490000E949E010E94BA000E9470010E94F30116
:1004A0000E94E0008091610081110DC08091620086
:1004B000882349F08091D700813029F00E942102E1
:1004C00081E08093D8008091D800813061F48091E0
:1004D0006200882321F080916100813021F40E9424
:1004E0002B021092D80080916100813069F48091D4
:1004F0006200813049F08091D800813029F00E945B
:10050000260281E08093D7008091D700813061F48A
:1005100080916200813021F080916100811104C0DE
:100520000E942B021092D7008091D600882331F0D0
:100530000E942B021092D7001092D8008091D60012
:10054000882309F4A3CF58C00E9451000E949E0145
:100550000E94BA000E9470010E94F3010E94F700FD
:100560008091600081110DC080916200882349F064
:100570008091D700813029F00E94210281E0809390
:10058000D8008091D800813061F480916200882386
:1005900021F080916000813021F40E942B021092A2
:1005A000D80080916000813069F4809162008130D0
:1005B00049F08091D800813029F00E94260281E024
:1005C0008093D7008091D700813061F480916200E0
:1005D000813021F080916000811104C00E942B02C3
:1005E0001092D7008091D600813031F00E942B020A
:1005F0001092D7001092D8008091D600813009F473
:10060000A3CF0CC00E942B020E9451000E949E01A9
:100610000E94BA000E9470010E94F3018091D600EE
:10062000823081F30CC00E942B020E9451000E9474
:100630009E010E94BA000E9470010E94F301809105
:10064000D600833081F30CC00E942B020E9451001F
:100650000E949E010E94BA000E9470010E94F30154
:100660008091D600873081F30CC00E942B020E943B
:1006700051000E949E010E94BA000E9470010E94D7
:10068000F3018091D600843081F30CC00E942B02CC
:100690000E9451000E949E010E94BA000E947001B7
:1006A0000E94F3018091D600853081F30CC00E9436
:1006B0002B020E9451000E949E010E94BA000E94DB
:1006C00070010E94F3018091D600863081F3089575
:1006D00080EE8ABB8EEF87BB14BA8FE981BB089589
:1006E0008630A1F018F4853031F008958730C9F0D4
:1006F000883011F108952BB381E090E002C0880F9B
:10070000991F6A95E2F7822B8BBB089528B381E08D
:1007100090E002C0880F991F6A95E2F7822B88BB90
:10072000089525B381E090E002C0880F991F6A9573
:10073000E2F7822B85BB089522B381E090E002C0EE
:10074000880F991F6A95E2F7822B82BB0895863045
:10075000A9F018F4853031F008958730D9F0883049
:1007600029F108952BB381E090E002C0880F991F12
:100770006A95E2F7809582238BBB089528B381E0C8
:1007800090E002C0880F991F6A95E2F78095822356
:1007900088BB089525B381E090E002C0880F991FBF
:1007A0006A95E2F78095822385BB089522B381E0A4
:1007B00090E002C0880F991F6A95E2F78095822326
:1007C00082BB0895863091F018F4853031F029C04D
:1007D0008730A9F08830E1F024C089B390E002C0EE
:1007E000959587956A95E2F78170089586B390E0B4
:1007F00002C0959587956A95E2F78170089583B355
:1008000090E002C0959587956A95E2F7817008950A
:1008100080B390E002C0959587956A95E2F7817064
:1008200008950895863059F018F4853031F0089510
:10083000873039F0883039F008956BBB089568BB74
:10084000089565BB089562BB0895CF93C82F65E0F6
:1008500085E00E94700366E085E00E94A7036C2F8C
:10086000607F86E00E94120467E085E00E947003CA
:100870008FE99FE00197F1F700C0000067E085E095
:100880000E94A7038FE99FE00197F1F700C00000E5
:100890006C2F6295607F86E00E94120467E085E01D
:1008A0000E9470038FE99FE00197F1F700C00000FC
:1008B00067E085E00E94A7038FE99FE00197F1F7C9
:1008C00000C00000CF910895CF93C82F65E085E068
:1008D0000E94A70366E085E00E94A7036C2F607F5B
:1008E00086E00E94120467E085E00E9470038FE9B1
:1008F0009FE00197F1F700C0000067E085E00E94EB
:10090000A7038FE99FE00197F1F700C000006C2F6B
:100910006295607F86E00E94120467E085E00E9495
:1009200070038FE99FE00197F1F700C0000067E0D6
:1009300085E00E94A7038FE99FE00197F1F700C0CF
:100940000000CF9108952FEF89EF90E02150804073
:100950009040E1F700C0000083E30E94640482E35A
:100960000E94640488E20E9464048CE00E94640493
:1009700086E00E94640481E00E946404089581E09E
:100980000E94640408950F931F93CF938C01C0E0DD
:1009900003C00E942504CF5FF801EC0FF11D808198
:1009A0008111F7CFCF911F910F910895882319F0EE
:1009B000813021F006C080E8860F04C080EC860FED
:1009C00001C080E00E9464048FE99FE00197F1F785
:1009D00000C0000008950E9434020E944502FDCF2D
:1009E000EE0FFF1F0590F491E02D0994F894FFCFCE
:1009F00002020350534550005374617475733A00FA
:100A0000506F736974696F6E3A00436C6F736564FD
:100A1000004F70656E65640054726176656C0055B8
:100A20006E64656669004C4F43414C20200052457E
:100A30004D4F544520004F4646202020200053545F
:100A40004F5020202000485F574845454C005448EF
:100A500045524D414C004F5F545251554500435F44
:060A6000545251554500FF
:00000001FF
